:020000040800F2
:100000000050002025740008297300082B73000895
:100010002D7300082F7300083173000800000000E2
:100020000000000000000000000000003373000822
:1000300035730008000000003773000839730008AA
:100040006D7400086D7400086D7400086D7400080C
:100050006D7400086D7400086D740008417000082C
:100060006D740008657000086D7400086D740008F8
:100070006D7400086D7400086D740008317000081C
:100080006D7400086D7400086D7400086D740008CC
:100090006D7400086D7400086D7400086D740008BC
:1000A0006D7400086D7400086D7400086D740008AC
:1000B0006D7400086D7400086D7400086D7400089C
:1000C0006D7400086D7400086D7400086D7400088C
:1000D0006D7400086D7400086D7400086D7400087C
:1000E0006D7400086D7400086D7400080000000055
:1000F0000000000000000000000000000000000000
:0C01000000000000000000005FF808F1A3
:10010C0010B5054C237833B9044B13B10448AFF345
:10011C0000800123237010BD44010020000000006A
:10012C002478000808B5034B1BB103490348AFF30F
:10013C00008008BD00000000480100202478000861
:10014C0010B504460E4B18784FF47A73B3FBF0F3EA
:10015C000C4A1068B0FBF3F000F0A4FA68B90F2C4D
:10016C0001D901200AE0002221464FF0FF3000F0B7
:10017C0059FA034B5C60002000E0012010BD00BF69
:10018C0004000020D800002008B5074A136843F08B
:10019C0010031360032000F033FA0020FFF7D0FFA8
:1001AC0006F0D8FF002008BD00200240034A116869
:1001BC00034B1B780B441360704700BF780800207A
:1001CC0004000020014B1868704700BF780800201D
:1001DC0038B50446FFF7F6FF0546B4F1FF3F02D0F1
:1001EC00044B1B781C44FFF7EDFF401BA042FAD3D5
:1001FC0038BD00BF040000200368D86C70470000B5
:10020C0030B482B00023019390F82430012B00F01D
:10021C008B800246012380F824304B68062B29D8AA
:10022C000568686B03EB8303053B1F249C4020EAA5
:10023C0004000C6804FA03F303436B630B68092B8B
:10024C0038D91568E86803EB43031E3B07249C4030
:10025C0020EA04008C6804FA03F30343EB600B6898
:10026C00103B012B34D90020002382F8243002B03B
:10027C0030BC70470C2B0ED80568286B03EB83033E
:10028C00233B1F249C4020EA04000C6804FA03F36F
:10029C0003432B63D2E70568E86A03EB8303413B16
:1002AC001F249C4020EA04000C6804FA03F3034367
:1002BC00EB62C3E71568286903EB430307249C40F2
:1002CC0020EA04008C6804FA03F303432B61C6E7AD
:1002DC0013681648834205D0936A43F02003936257
:1002EC000120C1E7986810F4000F1BD1986840F406
:1002FC00000098600B68102B01D00020B4E70C4B69
:10030C001B680C49A1FB03139B0C03EB83035900E3
:10031C00019102E0019B013B0193019B002BF9D160
:10032C000020A1E700209FE70220A0E70024014065
:10033C00D800002083DE1B4330B583B0002301932B
:10034C0003689A6812F0010F2ED19A6842F00102EC
:10035C009A60174B1B68174AA2FB03239B0C019353
:10036C0002E0019B013B0193019B002BF9D1044658
:10037C00FFF728FF054623689B6813F0010F11D186
:10038C00FFF720FF401B0228F5D9A36A43F01003A6
:10039C00A362E36A43F00103E362002384F8243090
:1003AC00012002E0002000E0002003B030BD00BFBF
:1003BC00D800002083DE1B4390F82430012B6AD038
:1003CC0010B50446012380F82430FFF7B5FF024630
:1003DC0000285BD1A36A23F4407323F0010343F498
:1003EC008073A36223682D498B4227D0A16A21F424
:1003FC008011A162596811F4806F05D0A16A21F4B3
:10040C00405141F48051A162A16A11F4805F2BD05C
:10041C00E16A21F00601E162002184F824106FF0FA
:10042C00020119602368996801F46021B1F5602F0D
:10043C001DD0996841F4801199602AE0A1F5806182
:10044C00496811F4702FD1D0A16A41F48011A162D6
:10045C001349496811F4806FD6D0A16A21F4405138
:10046C0041F48051A162CFE70021E162D4E70B494E
:10047C008B4204D0996841F4A001996009E0A1F580
:10048C008061496811F4702FD3D1F3E7002384F80D
:10049C002430104610BD022210467047002801403F
:1004AC000024014038B503689A6812F0010F01D19D
:1004BC00002038BD04469A6822F001029A60FFF7CA
:1004CC0081FE054623689B6813F0010F0ED0FFF7E1
:1004DC0079FE401B0228F5D9A36A43F01003A362EE
:1004EC00E36A43F00103E3620120E2E70020E0E766
:1004FC0000287FD038B50446836A002B33D02046C1
:10050C00FFF7D0FFA36A13F010036DD100286BD155
:10051C00A26A22F4885222F0020242F00202A26283
:10052C006268E1690A43E56842EA4502A168B1F5EF
:10053C00807F21D001291CD0616901291FD0256839
:10054C00696821F469410B436B6021688D682A4B03
:10055C002B4013438B60A368B3F5807F20D0012B15
:10056C001ED000211FE0C36280F8243006F042FE4A
:10057C00C5E74FF48073DFE74FF48073DCE735B9E0
:10058C00A169013943EA413343F40063D7E7A16A17
:10059C0041F02001A162E16A41F00101E162CEE784
:1005AC002369013B19052568EB6A23F470030B439F
:1005BC00EB6223689968114B0B409A420BD0A36AEB
:1005CC0023F0120343F01003A362E36A43F0010328
:1005DC00E36201200DE00023E362A36A23F003032E
:1005EC0043F00103A36204E0A36A43F01003A36287
:1005FC00012038BD01207047FDF7E1FFFE0E1FFF03
:10060C00074AD36823F4E0631B041B0C000200F4BC
:10061C00E060184340F0BF6040F40030D060704799
:10062C0000ED00E030B4174BDB68C3F30223C3F1D9
:10063C000704042C28BF04241D1D062D18D9033BC8
:10064C004FF0FF3505FA04F421EA0401994005FA4C
:10065C0003F322EA0303194300280BDB0901C9B297
:10066C0000F1604000F5614080F8001330BC704729
:10067C000023E5E700F00F000901C9B2024B195441
:10068C00F4E700BF00ED00E014ED00E000F01F0205
:10069C00400901239340024A42F82030704700BFC2
:1006AC0000E100E00138B0F1807F0AD2064B5860BF
:1006BC00064AF02182F823100020986007221A6065
:1006CC0070470120704700BF10E000E000ED00E033
:1006DC00042805D0054A136823F0040313607047FF
:1006EC00024A136843F004031360704710E000E003
:1006FC00704708B5FFF7FCFF08BD70B4066CC56BFE
:10070C000124B4406C60046863604368102B05D00E
:10071C00036899600368DA6070BC704703689A607C
:10072C000368D960F8E70000002830D010B4034605
:10073C000168184A0A441848A0FB020212099200E8
:10074C001A64164ADA63022283F82120086820F41E
:10075C007F5020F030005A689C682243DC682243AA
:10076C001C6922435C6922439C692243DC69224355
:10077C0002430A6000209862D86218635863986339
:10078C00012283F8212083F8200010BC704701203F
:10079C00704700BFF8FFFDBFCDCCCCCC00000240B1
:1007AC0038B590F82040012C32D0012480F820403C
:1007BC0090F82140012C04D0002380F82030022036
:1007CC0038BD0446022084F821000020A06325686F
:1007DC00286820F0010028602046FFF78EFFE36AAE
:1007EC005BB12268136843F00E0313602268136830
:1007FC0043F0010313600020E2E72268136823F042
:10080C00040313602268136843F00A031360EDE7D6
:10081C000220D5E7034690F8200001281FD00120C4
:10082C0083F8200093F82100012804D00120002235
:10083C0083F82020704703290FD8DFE801F0020568
:10084C00080B9A620020F2E7DA620020EFE71A63E5
:10085C000020ECE75A630020E9E70120E7E70220DB
:10086C0070470000F0B482B000263546A1E0002CA1
:10087C0059D0012C00D1CE68FF2B68D88446FF2BB1
:10088C0068D8AC00DCF800200F27A74022EA07024A
:10089C0006FA04F42243CCF800204A6812F0805F78
:1008AC0000F086805E4A946944F001049461926978
:1008BC0002F001020192019AAC08A71C594A52F8A5
:1008CC00272005F00307BF004FF00F0C0CFA07FCB4
:1008DC0022EA0C0C544A904242D002F580629042BB
:1008EC007FD002F5806290427DD002F5806290420A
:1008FC0034D0042235E04D4FBC4214D00BD94C4FB0
:10090C00BC4210D007F58037BC420CD0A7F580173D
:10091C00BC42B1D107E0A7F58017BC4203D007F564
:10092C008037BC42A8D18C687CB1012C08D04261C4
:10093C000826A1E7CE6808369EE7CE680C369BE702
:10094C000261082698E7002696E7042694E700F152
:10095C00040C94E7A5F10804A40093E7032200E03B
:10096C000022BA4042EA0C0202342E4F47F82420EF
:10097C004A6812F4803F38D02E4C22681A43226009
:10098C004A6812F4003F36D02A4C62681A436260FF
:10099C004A6812F4801F34D0264CA2681A43A26015
:1009AC004A6812F4001F32D0224CE2681343E36011
:1009BC0001350F2D31D80122AA400B6813409A4201
:1009CC00F6D14C68122CB8D095D8022CB2D07FF648
:1009DC004EAF032CB7D0112C7FF44EAFCE6804363B
:1009EC004AE70122BDE70222BBE7124C226822EA49
:1009FC0003022260C4E70F4C626822EA03026260C1
:100A0C00C6E70C4CA26822EA0302A260C8E7094CB4
:100A1C00E26822EA0303E360CAE702B0F0BC704765
:100A2C0000100240000001400008014000002110AD
:100A3C0000003110000401408368194201D10020EC
:100A4C0070470120704712B90904016170470161B8
:100A5C007047000082B0084B1B68084AA2FB0323B6
:100A6C005B0A00FB03F0019000BF019B5A1E019230
:100A7C00002BF9D102B07047D8000020D34D621082
:100A8C0070B582B00446036813F0010F2CD0AB4B49
:100A9C005B6803F00C03042B1DD0A84B5B6803F0C0
:100AAC000C03082B12D06368B3F5803F41D0002BA8
:100ABC0055D103F1804303F504331A6822F48032D4
:100ACC001A601A6822F480221A6037E09B4B5B682C
:100ADC0013F4803FE7D0994B1B6813F4003F03D00D
:100AEC006368002B00F0AE81236813F0020F76D000
:100AFC00924B5B6813F00C0F5FD0904B5B6803F06C
:100B0C000C03082B54D02369002B00F08A808C4BEB
:100B1C0001221A60FFF756FB0546884B1B6813F041
:100B2C00020F75D1FFF74EFB401B0228F5D90320AD
:100B3C008BE1824A136843F480331360636843B3D8
:100B4C00FFF740FB05467D4B1B6813F4003FCBD1F0
:100B5C00FFF738FB401B6428F5D9032075E1B3F58A
:100B6C00A02F09D0754B1A6822F480321A601A68CB
:100B7C0022F480221A60E1E703F18043A3F53C33B1
:100B8C001A6842F480221A601A6842F480321A60A1
:100B9C00D4E7FFF717FB0546684B1B6813F4003FBF
:100BAC00A2D0FFF70FFB401B6428F5D903204CE1C2
:100BBC00624B5B6813F4803FA5D1604B1B6813F04C
:100BCC00020F04D02369012B01D001203DE15B4AC7
:100BDC00136823F0F803616943EAC10313602368C7
:100BEC0013F0080F32D0A369002B5BD0554B0122B8
:100BFC001A60FFF7E7FA0546504B5B6A13F0020FD9
:100C0C0021D1FFF7DFFA401B0228F5D903201CE1A4
:100C1C004A4A136823F0F803616943EAC10313607D
:100C2C00DDE7474B00221A60FFF7CCFA0546434B31
:100C3C001B6813F0020FD2D0FFF7C4FA401B022836
:100C4C00F5D9032001E10120FFF704FF236813F01D
:100C5C00040F00F09780394BDB6913F0805F33D1C0
:100C6C00364BDA6942F08052DA61DB6903F080536B
:100C7C000193019B0125344B1B6813F4807F25D015
:100C8C00E368012B36D0002B4CD103F1804303F5E4
:100C9C0004331A6A22F001021A621A6A22F0040260
:100CAC001A622CE0274B00221A60FFF78BFA0546DC
:100CBC00224B5B6A13F0020FC8D0FFF783FA401B7C
:100CCC000228F5D90320C0E00025D4E71E4A13689A
:100CDC0043F480731360FFF775FA06461A4B1B68D2
:100CEC0013F4807FCCD1FFF76DFA801B6428F5D903
:100CFC000320AAE0114A136A43F001031362E3686C
:100D0C0073B3FFF75FFA06460C4B1B6A13F0020F26
:100D1C0037D1FFF757FA801B41F288339842F3D949
:100D2C00032092E0052B11D0044B1A6A22F0010229
:100D3C001A621A6A22F004021A62E0E700100240FA
:100D4C00000042428004424200700040414B1A6A4B
:100D5C0042F004021A621A6A42F001021A62CEE7E9
:100D6C00FFF730FA06463B4B1B6A13F0020F08D014
:100D7C00FFF728FA801B41F288339842F3D90320FD
:100D8C0063E0E5B9E369002B5ED0324A526802F0A9
:100D9C000C02082A5BD0022B17D02F4B00221A60B2
:100DAC00FFF710FA04462B4B1B6813F0007F47D05B
:100DBC00FFF708FA001B0228F5D9032045E0254A65
:100DCC00D36923F08053D361DCE7234B00221A60F4
:100DDC00FFF7F8F905461F4B1B6813F0007F06D090
:100DEC00FFF7F0F9401B0228F5D903202DE0236A08
:100DFC00B3F5803F1AD017494B6823F47413226A59
:100E0C00606A024313434B60134B01221A60FFF7D5
:100E1C00D9F904460F4B1B6813F0007F0ED1FFF776
:100E2C00D1F9001B0228F5D903200EE0094A5368BA
:100E3C0023F40033A1680B435360DCE7002004E08B
:100E4C00002002E0012000E0002002B070BD012073
:100E5C00FBE700BF001002406000424210B487B0B4
:100E6C00164C94E80F000DF1180C0CE90F00238AB6
:100E7C00ADF80430124B5B6803F00C02082A1AD14F
:100E8C00C3F38342624412F8102C13F4803F05D153
:100E9C000C4800FB02F007B010BC7047084B5B68B5
:100EAC00C3F34043634413F8143C074800FB02F0BF
:100EBC00B0FBF3F0EFE70448EDE700BF3C78000827
:100ECC000010024000093D0000127A00594B1B68CB
:100EDC0003F007038B420CD2564A136823F0070326
:100EEC000B431360136803F007038B4201D00120FE
:100EFC00704770B5036813F0020F06D04E4A536862
:100F0C0023F0F0038468234353600C4605460368C2
:100F1C0013F0010F52D04368012B23D0022B28D0A1
:100F2C00454A126812F0020F00F0828042494A686A
:100F3C0022F0030213434B60FFF744F906466B683B
:100F4C00012B1DD0022B2AD03B4B5B6813F00C0FEE
:100F5C0034D0FFF737F9801B41F288339842F3D92C
:100F6C00032064E0344A126812F4003FDED1012001
:100F7C005DE0314A126812F0007FD7D1012056E0B3
:100F8C002D4B5B6803F00C03042B17D0FFF71AF9F9
:100F9C00801B41F288339842F2D9032047E0264B5C
:100FAC005B6803F00C03082B08D0FFF70BF9801BD0
:100FBC0041F288339842F2D9032038E01D4B1B686C
:100FCC0003F00703A3420CD91A4A136823F0070352
:100FDC0023431360136803F00703A34201D00120DD
:100FEC0025E02B6813F0040F06D0134A536823F442
:100FFC00E063E9680B4353602B6813F0080F07D0CC
:10100C000D4A536823F46053296943EAC1035360C2
:10101C00FFF724FF084B5B68C3F30313074AD35C49
:10102C00D840074B18600020FFF78AF8002070BDED
:10103C000120FCE700200240001002407C7D0008EB
:10104C00D8000020014B1868704700BFD800002062
:10105C0070B582B00446036813F0010F34D03E4BD8
:10106C00DB6913F0805F48D13B4BDA6942F0805268
:10107C00DA61DB6903F080530193019B0125374B47
:10108C001B6813F4807F3AD0334B1B6A13F4407304
:10109C0011D0626802F440729A420CD02E4A136A44
:1010AC0023F440702E4901260E6000260E6010625B
:1010BC0013F0010F37D1284A136A23F44073616887
:1010CC000B431362002D3FD1236813F0020F06D09F
:1010DC00214A536823F44043A1680B4353602368AF
:1010EC0013F0100F35D01C4A536823F48003E168C9
:1010FC000B435360002002B070BD0025BFE7174AB8
:10110C00136843F480731360FFF75CF80646134BC7
:10111C001B6813F4807FB7D1FFF754F8801B642849
:10112C00F5D90320E7E7FFF74DF806460A4B1B6A93
:10113C0013F0020FBFD1FFF745F8801B41F2883343
:10114C009842F3D90320D6E7D36923F08053D361B7
:10115C00BAE70020CFE700BF00100240007000404B
:10116C0040044242F8B505460F4616461C463BE085
:10117C002CB1FFF727F8069BC01AA04234D32A687B
:10118C00536823F0E00353606B68B3F5827F0BD098
:10119C00AB6AB3F5005F14D0012385F851300023FE
:1011AC0085F85030032027E0AB68B3F5004F02D030
:1011BC00B3F5806FECD12A68136823F040031360F9
:1011CC00E6E72A68136823F400531B041B0C136016
:1011DC002A68136843F400531360DDE70123B3421C
:1011EC0009D0B4F1FF3FC3D12B689B6837EA0303E6
:1011FC00F4D00023F3E70020F8BD10B582B004460C
:10120C0000920B4600228021FFF7ACFF034610B979
:10121C00184602B010BD636D43F0200363650323D1
:10122C00F6E72DE9F04184B01E4690F85030012BC2
:10123C0000F0C88004460D469046012380F85030DB
:10124C00FEF7C0FF074694F85130DBB2012B0AD0F1
:10125C000223012284F85120002284F850201846E1
:10126C0004B0BDE8F081002D00F0A480B8F1000FAF
:10127C0000F0A280032384F85130002363652563BA
:10128C00A4F83480A4F83680A363A387E38763644F
:10129C002364A368B3F5004F1BD023681A6812F0BF
:1012AC00400F03D11A6842F040021A60E368B3F5AC
:1012BC00006F14D063681BB1E38E9BB2012B3ED13F
:1012CC00236815F8012B1A73E38E013B9BB2E3865E
:1012DC0035E02268136843F480431360DDE76368EC
:1012EC001BB1E38E9BB2012B0DD1236835F8022B79
:1012FC00DA60E38E013B9BB2E38604E0002E5DD006
:10130C00B6F1FF3F0FD1E38E9BB27BB323689A6893
:10131C0012F0020FF2D035F8022BDA60E38E013BAB
:10132C009BB2E386EFE7FEF74DFFC01BB042EAD35A
:10133C0003238EE7002E43D0B6F1FF3F0FD1E38E8F
:10134C009BB29BB123689A6812F0020FF2D015F889
:10135C00012B1A73E38E013B9BB2E386EFE7FEF79A
:10136C0031FFC01BB042EAD3032372E70097334628
:10137C00012202212046FFF7F5FE08B1032368E79E
:10138C003A4631462046FFF738FF034618B1202372
:10139C00636501235DE7A26832B903922268D168C4
:1013AC00039192680392039A626D002A3FF451AF45
:1013BC0001234EE701234CE701234AE7032348E7C7
:1013CC00032346E702234AE700283CD010B5044625
:1013DC000023836290F85130002B31D0022384F823
:1013EC0051302268136823F0400313606368A268CD
:1013FC001343E26813432269134362691343A269DE
:10140C0002F400721343E2691343226A1343A16A84
:10141C0022680B431360638B03F00403616A226838
:10142C000B4353602368E26A1A612268D36923F480
:10143C000063D36100206065012384F8513010BD36
:10144C0005F0FAFECAE701207047000070B4036A89
:10145C0023F001030362036A4268846924F0730475
:10146C000D6845EA040623F002048B6823430D4DF6
:10147C00A84209D00B4DA8420DD0426086614A6843
:10148C004263036270BC704723F00803CC682343AB
:10149C0023F00403EEE722F440724C6914438A698A
:1014AC002243EAE7002C014030B4036A23F4807332
:1014BC000362036A4268C46924F073040D682C4308
:1014CC0023F400738D6843EA05230F4DA84209D01D
:1014DC000D4DA8420ED04260C4614A68C2630362DB
:1014EC0030BC704723F40063CD6843EA052323F432
:1014FC008063EDE722F440524D6942EA05128D6992
:10150C0042EA0512E7E700BF002C014030B4036A41
:10151C0023F480530362036A4468C26922F4E642EE
:10152C000D6842EA052223F400538D6843EA053323
:10153C00074DA84206D04460C2614A680264036247
:10154C0030BC704724F480444D6944EA8514F2E7BA
:10155C00002C014010B4036A046A24F001040462F4
:10156C00846924F0F00444EA021223F00A030B43CA
:10157C008261036210BC704710B4036A23F010033D
:10158C0003628469036A24F4704444EA023223F04F
:10159C00A00343EA01138261036210BC70478368A5
:1015AC0023F0700341F0070119438160704710B4B8
:1015BC00846824F47F4442EA03230B43234383606F
:1015CC0010BC7047704790F83C30012B7DD010B5A3
:1015DC000446012380F83C30022380F83D30026839
:1015EC00936823F47F4323F0770393600B68402BBD
:1015FC0057D010D9702B3ED01FD8502B47D0602B12
:10160C0032D1CA6849680068FFF7B6FF60212068CC
:10161C00FFF7C5FF28E0102B4DD008D9202B4FD059
:10162C00302B21D130210068FFF7B9FF1CE0DBB96A
:10163C0000210068FFF7B3FF16E0B3F5805F0ED012
:10164C00B3F5005F10D1CB684A6889680068FFF772
:10165C00AEFF2268936843F48043936004E0026811
:10166C00936823F007039360012384F83D30002036
:10167C0084F83C0010BDCB684A6889680068FFF7A5
:10168C0096FF2268936843F077039360ECE7CA688F
:10169C0049680068FFF75EFF50212068FFF77FFF65
:1016AC00E2E7CA6849680068FFF754FF40212068E8
:1016BC00FFF775FFD8E710210068FFF770FFD3E73D
:1016CC0020210068FFF76BFFCEE7022070477047C0
:1016DC0010B5446A012384F83D30636A83420BD011
:1016EC00A36A834210D0E36A834210D0236B8342F7
:1016FC0004D10823237701E0012323772046FFF749
:10170C00E6FF0023237710BD02232377F6E704239B
:10171C002377F3E7704708B5406A012380F83D3022
:10172C00FFF7F8FF08BD000003681B4A90420AD07F
:10173C00B0F1804F07D0A2F59432904203D002F55D
:10174C008062904203D123F070034A681343124A1B
:10175C0090420AD0B0F1804F07D0A2F5943290425B
:10176C0003D002F58062904203D123F44073CA681F
:10177C00134323F080034A69134303608B68C362ED
:10178C000B688362044B984202D00123436170477B
:10179C000B690363F9E700BF002C0140A8B110B539
:1017AC00044690F83D305BB1022384F83D30211D96
:1017BC002068FFF7B9FF012384F83D30002010BDED
:1017CC0080F83C3005F05CFDEEE701207047A8B1D5
:1017DC0010B5044690F83D305BB1022384F83D30DF
:1017EC00211D2068FFF7A0FF012384F83D30002065
:1017FC0010BD80F83C30FFF7E5FEEEE701207047A6
:10180C0030B4036A23F010030362036A44688269EC
:10181C0022F4E6420D6842EA052223F020038D688B
:10182C0043EA05130E4DA84209D00D4DA8420ED027
:10183C00446082614A688263036230BC704723F063
:10184C008003CD6843EA051323F04003EDE724F44D
:10185C0040644D6944EA85048D6944EA8504E7E7F0
:10186C00002C014038B590F83C30012B66D00D4669
:10187C000446012380F83C30022380F83D300C2ACA
:10188C001AD8DFE802F00719191920191919341997
:10189C00191947000068FFF7D9FD2268936943F0D6
:1018AC00080393612268936923F00403936122680F
:1018BC00936929690B439361012384F83D3000201F
:1018CC0084F83C0038BD0068FFF79AFF22689369E2
:1018DC0043F4006393612268936923F480639361FA
:1018EC0022689369296943EA01239361E4E700685C
:1018FC00FFF7DAFD2268D36943F00803D36122684D
:10190C00D36923F00403D3612268D36929690B439B
:10191C00D361D1E70068FFF7F9FD2268D36943F47E
:10192C000063D3612268D36923F48063D361226896
:10193C00D369296943EA0123D361BDE70220C1E7DA
:10194C0010B4012303FA01F4036A23EA04030362CB
:10195C00036A8A401343036210BC704770B590F859
:10196C003D60F6B2022E77D090F83D40E4B2012CE7
:10197C000DD016460D4604460C2922D8DFE801F09E
:10198C0010212121312121214321212155001AB17E
:10199C00022480F83D40ECE7002BF9D001201FE039
:1019AC00426A2E499162426A2D49116302683432AF
:1019BC003146406AFEF7F4FE2268D36843F40073A4
:1019CC00D360012229462068FFF7BAFF2368254A15
:1019DC0093423CD02268136843F00103136000204B
:1019EC0070BD826A1D499162826A1D491163026849
:1019FC0038323146806AFEF7D3FE2268D36843F44E
:101A0C008063D360DDE7C26A14499162C26A1449EB
:101A1C00116302683C323146C06AFEF7C1FE22688F
:101A2C00D36843F40063D360CBE7026B0B4991623C
:101A3C00026B0B491163026840323146006BFEF7B2
:101A4C00AFFE2268D36843F48053D360B9E75A6C75
:101A5C0042F400425A64BDE70220C1E7DD160008DB
:101A6C0023170008002C014010B504460C290DD892
:101A7C00DFE801F0070C0C0C280C0C0C2E0C0C0CD9
:101A8C0034000268D36823F40073D360002220680A
:101A9C00FFF756FF23681C4A934225D02368196A26
:101AAC0041F21112114208D1196A40F2444211421A
:101ABC0003D11A6822F001021A60012384F83D3028
:101ACC00002010BD0268D36823F48063D360DDE787
:101ADC000268D36823F40063D360D7E70268D36845
:101AEC0023F48053D360D1E7196A41F211121142E9
:101AFC00D4D1196A40F244421142CFD15A6C22F42B
:101B0C0000425A64CAE700BF002C014090F83C30F8
:101B1C00012B22D030B4012280F83C20022380F823
:101B2C003D300468636823F0700363600468636885
:101B3C000D682B4363600468A36823F08003A360E3
:101B4C000468A36849680B43A36080F83D20002318
:101B5C0080F83C30184630BC70470220704770B596
:101B6C0082B004460E461546002201894068FEF7F5
:101B7C006AFF8DF804608DF8055041F2883302221B
:101B8C0001A92068FFF74DFB012221896068FEF74F
:101B9C005AFF0A20FEF71CFB02B070BD01604260C8
:101BAC00038104238372704708B50A4601B10122F0
:101BBC000C21FFF7D4FF08BD38B50546002406E01C
:101BCC000134E4B2002221462846FFF7C8FF072C57
:101BDC00F6D938BD10B5044607220B21FFF7BFFF1D
:101BEC00002209212046FFF7BAFF00220F212046D0
:101BFC00FFF7B5FFA27A0A212046FFF7B0FF0022BB
:101C0C000C212046FFF7ABFF6420FEF7E1FA01211F
:101C1C002046FFF7C9FF2046FFF7CEFF10BD00009E
:101C2C0007290CD80F2A0AD810B5054CA25C0BB1A9
:101C3C0042F080020131C9B2FFF791FF10BD70472D
:101C4C005078000810B5A2F12804E4B2522C04D844
:101C5C00602A03D9203AD2B200E02822283AD2B224
:101C6C0007290BD8372A09D8054C2244127C0BB112
:101C7C0042F080020131C9B2FFF771FF10BD00BF05
:101C8C00507800087047F0B4B0F85A309BB2B0F8F6
:101C9C00504090F8592002FB04F2934224DB0023BD
:101CAC002DE0651C90F853600E55ECB25200D2B288
:101CBC000133DBB2072B08D812F0800FF1D1651C71
:101CCC0090F852600E55ECB2F0E70137FFB2634664
:101CDC0090F85920BA420AD9C26C03F1010C1FFAD0
:101CEC008CFCD25C0023E5E700273C46F0E7A0F82B
:101CFC005A30F0BC70470022CA540133DBB290F862
:101D0C005920B3EBC20FF6DBB0F85A301A4492B23A
:101D1C00A0F85A20EDE7032380F859300B4080F8E7
:101D2C005730C1F3011380F85630C1F3012380F80A
:101D3C005530090B07D001F00301013980F8581018
:101D4C00042380F85930704741EA002042EA002011
:101D5C00704741EA002042EA002043EA0020704725
:101D6C0008B5C043C0B254280ED9A92817D956308B
:101D7C00C0B2A0EB8001013900EB40000022C9B2D7
:101D8C00C0B2FFF7E1FF09E000EB4002A0EB8000DE
:101D9C000138D2B20021C0B2FFF7D6FF08BD5538CA
:101DAC00C1B2A1EB8102013A01EB4101D2B2C9B23D
:101DBC000020FFF7C9FFF1E708B5C243D2B2542A9D
:101DCC000CD9A92A11D95632D0B2C14300EB40002C
:101DDC00FF22C9B2C0B2FFF7B7FF05E002EB420227
:101DEC00D2B2FF21FFF7B0FF08BD553AD1B2CA43BA
:101DFC0001EB4101D2B2C9B2FF20FFF7A5FFF3E717
:101E0C00B0F850308B424DD970B490F8596006FB45
:101E1C0001F189B2B0F85A309BB20D468C19A3422D
:101E2C00F8DDD4B290F8543023B103FB04F38033C3
:101E3C00C3F30724C36C90F8571029445C54110A5F
:101E4C00CCB290F8543023B103FB04F38033C3F3CA
:101E5C000724C36C90F8561029445C54110CCCB276
:101E6C0090F8543023B103FB04F38033C3F30724FD
:101E7C00C36C90F8551029445C5490F85930032BDE
:101E8C000ED9120ED1B290F8543023B103FB02F2EA
:101E9C008032C2F30721C36C90F858201544595571
:101EAC0070BC70477047B0F850308B4243D970B457
:101EBC0090F8593003FB01F189B2032B0ED9C26C97
:101ECC0090F858300B44D35C90F854403CB1620805
:101EDC0002EB032393FBF4F3DBB200E000231A02C2
:101EEC00C56C90F855300B44EB5C90F854402CB119
:101EFC00660806EB032393FBF4F3DBB213431A02DD
:101F0C0090F856300B44EB5C2CB1660806EB0323BF
:101F1C0093FBF4F3DBB213431B0290F857201144EC
:101F2C00685C2CB1620802EB002090FBF4F0C0B2AC
:101F3C00184370BC704700207047B0F850007047D1
:101F4C0090F85C30002BFBD0704710B50446FFF7BF
:101F5C00F7FF002304E0E26C0021D15401339BB263
:101F6C00B4F8501094F8592002FB01F29342F2DBC2
:101F7C0010BDF8B504460D4617461E46BDF81C109C
:101F8C00FFF7C9FE0023A4F8503084F8543018220F
:101F9C0084F85220312284F8532023606360A360BC
:101FAC00012384F85C3094F85900AB1C03FB00F35C
:101FBC009BB2A4F85A3000FB05F005F0A9FAE064D6
:101FCC0028B1A4F8505027606660069BA360204699
:101FDC00FFF7BBFFF8BD0000C36C4BB310B5044654
:101FEC00FFF7AEFF002384F85C30A4F85A3094F865
:101FFC005910C900C9B204E05A1C234400201873BC
:10200C00D3B28B42F8D30831214404312046FFF778
:10201C003AFE084A0121A068FEF7FCFB94F85930FF
:10202C001B0104F10C0261682068FFF797FC10BDDE
:10203C00704700BF911C000870B505468468E36BBF
:10204C001A6820680668216C04238B4013422ED03A
:10205C0016F0040F2BD0524B984214D014339842E4
:10206C001AD01433984219D01433984219D014331F
:10207C00984219D01433984202D04FF0806203E09A
:10208C004FF4800200E00422464B5A6005F10C012B
:10209C002846FFF7F8FD70BD4022F5E74FF480624B
:1020AC00F2E74FF48042EFE74FF48022ECE7022393
:1020BC008B40134255D016F0020F52D0B5F85A206F
:1020CC0092B2B5F85030991C95F8593003FB01F3D6
:1020DC009A4215DA2368324A934222D01432934240
:1020EC0034D01432934233D01432934233D014325E
:1020FC00934233D01432934210D04FF0007211E05F
:10210C00036823F00A030360012684F821606968E0
:10211C002868FFF7A9FC85F85C60DBE74FF4001238
:10212C0000E002221F4B5A60002384F8203095F8FF
:10213C005910C9000831294404312846FFF7A3FD82
:10214C00A36A002BA7D020469847A4E72022E9E7F2
:10215C004FF40072E6E74FF40052E3E74FF400321D
:10216C00E0E7082303FA01F1114294D016F0080FAE
:10217C0091D0036823F00E030360226CE16B012302
:10218C0003FA02F24A60A36384F82130002384F836
:10219C002030236B002B3FF47EAF204698477AE724
:1021AC000800024000000240002303734373704791
:1021BC0000230373437370470023072B07D81A1DA2
:1021CC0000EB4202002191800133DBB2F5E770474E
:1021DC0070470023438170477047704770477047C2
:1021EC00704770477047704770477047704770472B
:1021FC00704770477047704770477047704770471B
:10220C00704770477047704770477047704770470A
:10221C0070477047704770477047704770477047FA
:10222C0070477047704770477047704770477047EA
:10223C007047704710B504460521022005F0DCF804
:10224C0020754FF4FA71642005F0D6F8A0610023D4
:10225C00237710BD10B504460023C3604FF4807083
:10226C0005F0C1F8A074022005F0BDF8003018BFCD
:10227C00012060741E210A2005F0BEF8207410BDE8
:10228C0010B504460023C3750376022005F0ABF8A5
:10229C00003018BF0120207310BD10B504464FF458
:1022AC00807005F0A0F86073022005F09CF80030F7
:1022BC0018BF0120A07364211E2005F09DF8206139
:1022CC0014210D2005F098F820750023237310BD00
:1022DC0010B504464FF4807005F085F86073022049
:1022EC0005F081F8003018BF0120A07364211E2076
:1022FC0005F082F820611421072005F07DF8207587
:10230C000023237310BD38B505460023C36003209A
:10231C0005F069F8C4B26B69E20003FA02F2EB68EB
:10232C001343EB600321012005F066F82044C0B292
:10233C00022800D90020AB69C00003FA00F0EB685A
:10234C000343EB6038BD10B504464FF4807005F0C4
:10235C004AF860721421052005F04EF8C0B2A07244
:10236C00E0720023237310BD10B504464FF4807047
:10237C0005F039F82075022005F035F8003018BF4B
:10238C0001202073022005F02EF8003018BF012028
:10239C00A073012323820022628263732272E37191
:1023AC0010BD10B504464FF4807005F01CF8A076F3
:1023BC000023E376022005F016F8003018BF012048
:1023CC00207701232372E37110BD10B5044602205F
:1023DC0005F009F8003018BF012020774FF4807009
:1023EC0005F001F884F82400402004F0FCFF84F888
:1023FC00250001232372E37110BD10B504464FF480
:10240C00807004F0F0FF607210BD10B504464FF4FC
:10241C00807004F0E8FF607210BD10B504464FF4F4
:10242C00807004F0E0FF20730023637310BD000084
:10243C0010B504460421022004F0DEFF637A03EB9E
:10244C00001001306072022004F0CDFF003018BF84
:10245C00012020740023E36000B110BD0248FFF797
:10246C006CFD0138E060F8E70C08002010B504465C
:10247C000648FFF762FD0146A0EBA00004F0BCFF8C
:10248C00607200232372E37110BD00BF0C080020A2
:10249C0030B583B00546042004F0A5FFC0B2287304
:1024AC00022817D932232B7164236B710721032067
:1024BC0004F0A2FFE873052004F095FF78B1002327
:1024CC00052B1CD81A460133DBB202A90A4402F8C8
:1024DC00083CF5E701232B7105236B71E6E74FF4FC
:1024EC00807004F080FFC0B2FFF73AFC0023052B8C
:1024FC0048D81A1D45F822000133DBB2F7E7002457
:10250C0001E00134E4B2312C11D8062004F06BFF49
:10251C0010F0FF0FF5D09DF80030C0B202AA1044A5
:10252C0010F8082C8DF8002000F8083CE9E700238F
:10253C0001E00133DBB2EA7B9A4223D9184602AAA6
:10254C001A4412F8082C191D002445F8214012F0E9
:10255C00010F02D0FF2445F8214012F0020F06D0E3
:10256C00041D55F8241041F47F4145F8241012F055
:10257C00040FDED0043055F8202042F47F0245F8D9
:10258C002020D6E7EB7B013B6B730023AB7301235D
:10259C002B72EB7103B030BD38B505464FF480702B
:1025AC0004F021FFC0B2FFF7DBFBE8600848FFF73F
:1025BC00C4FC0446C010023004F015FFC4EBC40484
:1025CC0000EB241000B2A8826882288238BD00BFBC
:1025DC000C08002038B504464FF4807004F003FF5B
:1025EC00C5B22846FFF7BCFBE0601021042004F0C4
:1025FC0003FF2844C0B2FFF7B3FB20610023A38282
:10260C000248FFF79AFC0138E08238BD0C08002024
:10261C0038B50446037E53B9B0F91410B0F916302E
:10262C0099423DDB012303760023237238BDB0F9B8
:10263C001410264D6FF07F4289B22846FFF7E0FB5D
:10264C00B4F916106FF07F4289B22846FFF7D8FB19
:10265C00B4F91630B4F914105B1A0B2B11DCB4F965
:10266C001430013B1BB2A382B4F916200132E28272
:10267C00002BD9DA23689B682046984701232372E4
:10268C00D4E789B20631002289B22846FFF7B8FB9D
:10269C00E18A0639002289B22846FFF7B1FBDEE752
:1026AC000A4DC26889B22846FFF7AAFBB4F9161086
:1026BC00226989B22846FFF7A3FBB4F91630013B17
:1026CC00E382B4F914300133A382ADE70C08002087
:1026DC0038B50446012505824FF4807004F083FE62
:1026EC00C0B26075FFF73CFB0246E0602575B4F99B
:1026FC001030638200210248FFF782FB38BD00BF17
:10270C000C08002070B50446407AFFF729FB0546FB
:10271C00237C63B9E16800291FDB4B1EE360024692
:10272C0089B21148FFF76CFB0023237270BDE66879
:10273C000D48FFF702FC864206DD23689B682046A5
:10274C00984701232372F1E7E1684B1CE3602A46AA
:10275C0089B20548FFF754FBE6E723689B682046DF
:10276C00984701232372E1E70C080020F8B50546D1
:10277C002E48FFF7E2FB6B7C43B3EB68834217DC1C
:10278C00A87C431EAB74FFF7EBFA0746EC68002CF1
:10279C0018DD611E254E002289B23046FFF730FB52
:1027AC003A46A1B23046FFF72BFB2B7CE41AEEE73E
:1027BC002A7C9B1AEB60411E002289B21B48FFF752
:1027CC001FFBDDE7EB680133EB60F8BD0646EB68F9
:1027DC00002B07DBA87C431CAB74FFF7C1FA074640
:1027EC00EC680FE02A7C1344EB60002211460F4882
:1027FC00FFF706FBEEE73A46A1B20C48FFF700FBE9
:10280C002B7C1C44B4420CDA0848FFF796FB0138C9
:10281C00A042F0DD611C002289B20448FFF7F0FAF7
:10282C00E9E7EB68013BEB60CFE700BF0C08002049
:10283C0038B50446B0F91210002911DAB4F9145065
:10284C001848FFF77AFB854210DB638A023B1BB208
:10285C006382A58A02352DB2A582002B0EDB38BD12
:10286C00C26889B20F48FFF7CBFAE7E7B4F9141046
:10287C00E26889B20B48FFF7C3FAE6E70948FFF7AD
:10288C005CFB8542EBDB238A01331BB2A3826382A0
:10289C004FF4807004F0A7FDC0B2FFF761FAE0605E
:1028AC00DDE700BF0C08002038B50446B0F9141061
:1028BC00154DC26889B22846FFF7A2FAB4F9161072
:1028CC00226989B22846FFF79BFAA38A0233A382B6
:1028DC00E38A023B1BB2E382002B02DB0023237250
:1028EC0038BD236933B923689B6820469847012378
:1028FC002372F5E70023E3602361A3822846FFF7E8
:10290C001CFB0138E082E9E70C08002070B5044696
:10291C00012686824FF4807004F065FDC0B22076EB
:10292C00FFF71EFA084D024600212846FFF768FA09
:10293C002673002323612846FFF7FFFAA38AC01AE7
:10294C0080B20138E08270BD0C08002038B5054615
:10295C00037D002B41D0002405E0EA68A1B2354884
:10296C00FFF74EFA0134B5F91230A3420ADBB5F980
:10297C0010209B1AA342F0DD0022A1B22D48FFF7D4
:10298C003FFAEFE701331CB26C822A48FFF7D5FA05
:10299C00844209DAB5F910402648FFF7CEFA844292
:1029AC0043DA00232B7238BD00232B75214C2046B3
:1029BC00FFF7C3FA0111012004F01EFD2B8A184405
:1029CC0028822046FFF7B9FA2B8AC31A9BB2013B27
:1029DC006B826B7D04336B75DCE71648FFF7ADFA41
:1029EC00441E05E0EA68A1B21248FFF709FA013C5F
:1029FC00B5F91230A3420ADCB5F910201344A342F6
:102A0C00F0DA0022A1B20B48FFF7FAF9EFE7013B2D
:102A1C001BB26B82002BBDDA01232B75B5F910307C
:102A2C006B826B7D04336B75B4E70123EB712B72F6
:102A3C00B9E700BF0C080020F8B505461C48FFF7A5
:102A4C007CFA06460023B3420ADA297B9CB2214465
:102A5C00002289B21648FFF7D3F9E31C1BB2F2E748
:102A6C002B7B0133DBB22B73022B01D900232B738D
:102A7C00687AFFF775F907460024B44208DA297B17
:102A8C0021443A4689B20A48FFF7BAF90334F4E70D
:102A9C0095F90B30013B5BB2EB72002B00DDF8BDFE
:102AAC0095F90A30EB726B7A01336B72F7E700BF62
:102ABC000C08002070B50446037A23BB2748FFF7A7
:102ACC003CFA0646658A237B1BB9451BADB2013D1A
:102ADC00ADB2637BDBB1207DFFF742F90246A37BED
:102AEC0013B1237D0133237529461C48FFF788F960
:102AFC00628A531C9BB26382218A8B4202D362820C
:102B0C000023637370BD03689B689847D6E7002267
:102B1C0029461248FFF774F9638A7BB90123637362
:102B2C00238A5A1C96420CDC0120238A184480B25A
:102B3C002082B042E6D301232372E3E7013B638298
:102B4C00E0E7F11A013149100131012004F054FC85
:102B5C0080B20A28E9D90A20E7E700BF0C08002058
:102B6C0010B504468369013B8361002B0DDD002306
:102B7C002361237F0133DBB22377227D93420CD870
:102B8C0004F10C0002F050FF10BD037B83F0010335
:102B9C00037303689B689847E9E7002323774FF496
:102BAC00807004F020FCC0B2FFF7DAF82061E7E790
:102BBC0070B504460C3002F037FFB4F91630013B07
:102BCC001BB2E382002B02DB0023237270BD0A21AF
:102BDC00032004F011FC237E1844C0B22076FFF7CA
:102BEC00BFF80546237B43B3184E3046FFF7A5F9D3
:102BFC00A18A411A89B201392A4689B23046FFF7B7
:102C0C00FFF8B4F914300133A382237B83F0010362
:102C1C0023730E4E3046FFF790F9B4F91450ABB253
:102C2C00C31A9BB2013BE3823046FFF786F985421B
:102C3C00CADB0123E3712372C8E7B4F9141002460E
:102C4C0089B20248FFF7DCF8DBE700BF0C08002074
:102C5C00F8B505464FF4807004F0C5FBC0B2FFF721
:102C6C007FF804465FFA80FCC0F30727C0F30746E1
:102C7C000123042B12D84FEA5C0C7F087608320231
:102C8C0092B2F8B202435FFA8CF040EA0220991C2F
:102C9C0005EB810148600133DBB2EAE7A96905F174
:102CAC00090002F003FF04F0013626F080760F488D
:102CBC00FFF743F907460024BC4207D232462146AF
:102CCC000A48FFF79DF80134A4B2F5E7002485F813
:102CDC002540384604F087FB28840F21052004F09A
:102CEC008BFB85F8230085F82240F8BD0C080020EA
:102CFC0010B504460023FF22042B0BD842EA022015
:102D0C0040EA0240991C04EB8101486052080133EF
:102D1C00DBB2F1E7E16904F1090002F0C7FE0948F2
:102D2C00FFF70BF904F05FFB2084002384F82230BA
:102D3C000421012004F060FBC0B284F8240084F864
:102D4C00250010BD0C080020F8B50746037E1BBB00
:102D5C0001230376002401E00134A4B21E48FFF7DE
:102D6C00ECF8844228D207F1140625021A48FFF722
:102D7C00E4F895FBF0F0C0B2FEF7F2FF01463046E6
:102D8C0002F094FE02222146304602F0E1FE0028B9
:102D9C00E2D100233B76DFE70C3002F045FE3B7BB3
:102DAC005BB1F87DFEF7DCFF024600210A48FFF715
:102DBC0027F8FB7D0133FB75F8BD074D2846FFF75F
:102DCC00BCF8013884B2F87DFEF7CAFF02462146F2
:102DDC002846FFF715F8ECE70C08002070B50646FE
:102DEC00437BEBB901234373002401E00134A4B20B
:102DFC001748FFF7A2F8844229D206F10905E0B280
:102E0C00FEF7AEFF0146284602F050FE0222214694
:102E1C00284602F09DFE0028E8D100237373E5E7F5
:102E2C0000240B48FFF789F884420DD2E0B2337BC3
:102E3C001844C0B2FEF794FF024621460448FEF740
:102E4C00DFFF0134A4B2ECE7337B0133337370BD85
:102E5C000C080020F8B50646437B1BBB01234373CB
:102E6C00002401E00134A4B21E48FFF766F8844246
:102E7C0036D206F1090725021A48FFF75EF895FBD2
:102E8C00F0F0C0B2FEF76CFF0146384602F00EFEC1
:102E9C0001222146384602F05BFE0028E2D00023D6
:102EAC007373DFE700250F48FFF747F8854214D20C
:102EBC002C020C4F3846FFF740F894FBF0F0C0B2F0
:102ECC00347B2044C0B2FEF74BFF024629463846FD
:102EDC00FEF796FF0135ADB2E5E7337B0133337373
:102EEC00F8BD00BF0C08002070B50646437BEBB95B
:102EFC0001234373002401E00134A4B21648FFF708
:102F0C001CF8844226D206F10905307BFEF728FF17
:102F1C000146284602F0CAFD01222146284602F04D
:102F2C0017FE0028E8D100237373E5E700240A4854
:102F3C00FFF703F884420AD2307BFEF711FF0246FA
:102F4C0021460548FEF75CFF0134A4B2EFE7337B62
:102F5C000133337370BD00BF0C08002070B50546FB
:102F6C004FF4807004F03FFAC0B2FEF7F9FE06464B
:102F7C00072414E0E3B2043305EB430300229988E1
:102F8C001648FEF73DFFE4B2631EDBB21A1D05EBDB
:102F9C0042029288043405EB4404A2805CB2002CFB
:102FAC000DDD062CE6D0E3B2043305EB43036FF0E2
:102FBC007F02998805F1090002F0CAFDE3E7074C8E
:102FCC002046FEF7BAFF013004F00DFA81B2A98158
:102FDC0032462046FEF714FF70BD00BF0C080020DF
:102FEC002DE9F04704466B48FEF7A7FF0646657BC4
:102FFC0005F1010A5FFA8AFAE37B534501D84FF0D9
:10300C00000A237B012B3AD073B1022B6ED0ADB2E8
:10301C00B54280F0A680002229465E48FEF7F0FEFD
:10302C00E37B1D44ADB2F3E7ADB2B5420AD26FF00B
:10303C000702294604F1090002F08AFDE37B1D44D6
:10304C00ADB2F2E704F109070AF1040354F82310B6
:10305C00384602F02BFD1FFA8AF54FF0010902E009
:10306C00E37B1D44ADB2B54280F08D800822294629
:10307C00384602F06DFD0028F2D18146F0E704F1EC
:10308C0009070AF1040354F82310384602F00EFD28
:10309C001FFA8AF54FF0010909E06FF00702294683
:1030AC00384602F055FD88B1E37B1D44ADB2B54204
:1030BC000ED2A27BE37B9A42EFD2082229463846F5
:1030CC0002F046FD0028EFD18146EDE78146EBE7A3
:1030DC00B9F1000F57D0A37B0133DBB2A373E27BB2
:1030EC00B3EB420F4FDB0023A3734CE04FF000080F
:1030FC004FF001091DE06FF003022946384602F03B
:10310C0027FD80B1E37B1D44ADB2B5420DD2A37B4C
:10311C00002BF0D104222946384602F019FD002874
:10312C00F0D18146EEE78146ECE708F101085FFA41
:10313C0088F8E37B43450BD904F1090708F1040334
:10314C0054F82310384602F0B1FC1FFA88F5DCE77E
:10315C00B9F1000F17D0A37BB3FA83F35B09A37308
:10316C0011E01FFA8AF5B5420BD20AF1040354F8A8
:10317C00232029460748FEF743FEE37B1D44ADB2EE
:10318C00F1E74FF00109B9F1000F01D084F80DA05F
:10319C00BDE8F0870C080020F8B5044600F10907DB
:1031AC006FF03F01384602F0EFFC2448FEF7C5FEF5
:1031BC00064694F90C50B54208DA6FF07F02A9B2BA
:1031CC00384602F0C5FC237D1D44F4E7A37BF3B124
:1031DC0094F90C3001332373227D94F90C1091FB7C
:1031EC00F2F302FB13132373607BFEF7B9FD074662
:1031FC00637B4733637394F90C50B5420CDA3A464F
:10320C00A9B20E48FEF7FCFD237D1D44F5E794F9A9
:10321C000C30013B2373DFE72369013B2361002B57
:10322C0000DBF8BD4FF49671462004F0E5F8206100
:10323C00A37B83F00103A373F3E700BF0C0800200A
:10324C0070B504465148FEF778FE94F825304BB122
:10325C000646012B1DD06FF0030104F1090002F0AA
:10326C0093FC04E0042104F1090002F08DFC002819
:10327C0000F0878094F825300133DBB284F82530D8
:10328C00022B7ED923689B68204698470123237222
:10329C0079E094F8223053BB012384F82430B4F93C
:1032AC002030C0F34F02934202DDFF2284F8242029
:1032BC00F11A023994F92420002A16DB052004F0B7
:1032CC009BF884F8220094F82330013BDBB284F89D
:1032DC00233063B90025B54256D2A26929462B4842
:1032EC00FEF78EFD0135ADB2F5E7991EE6E794F9D0
:1032FC002430228C134423840025B54207D2A269C2
:10330C0029462248FEF77CFD0135ADB2F5E70920D0
:10331C0004F069F8011F49B204F1090002F034FC11
:10332C00032501E0013D2DB2002D0FDDB4F9201075
:10333C004B1B002BF6DB89B2491BAB1C04EB830344
:10334C005A6889B21148FEF75BFDEBE7002501E0F6
:10335C000135ADB2032D0FD8B4F920104B19B3427F
:10336C00F6DA89B22944AB1C04EB83035A6889B2A0
:10337C000648FEF745FDEBE794F82230013B84F854
:10338C0022300023237270BD012070E70C0800204E
:10339C00F8B504466FF00701093002F0F5FB94F81C
:1033AC002530013BDBB284F8253003B1F8BD94F82D
:1033BC00243084F825303748FEF7BFFD0546064615
:1033CC0094F8223003BB012384F82330B4F9203065
:1033DC0000EBD072B3EB620F02DDFF2384F82330D5
:1033EC002946052004F008F884F82200032003F095
:1033FC00FAFF431E94F824001844C0B284F8240049
:10340C0070B9012384F8243094F92330228C1344AE
:10341C001BB293FBF5F205FB12332384002514E059
:10342C000328F1D9032384F82430EDE7002919DAB5
:10343C00314417E0002925DB023704EB87077A6853
:10344C0089B21448FEF7DCFC0135052D1CDC15F0A7
:10345C00FF0301D0013BDBB2B4F9201029448E42AA
:10346C00E4DC891B1F46023304EB83035A6889B2E0
:10347C000848FEF7C5FCB4F92010491B8E42D9DC74
:10348C00891BD9E73144D7E794F82230013B84F803
:10349C0022308BE70C0800202DE9F0416FF00F0172
:1034AC00093002F071FB0521012003F0A5FFC7B222
:1034BC00002401E00134E4B2BC421BD20E4D28467C
:1034CC00FEF73BFD013003F08EFF86B24FF48070A7
:1034DC0003F089FFC0B2FEF743FC80463146284614
:1034EC00FEF7E1FC0028E5D1424631462846FEF7BE
:1034FC0087FCDFE7BDE8F0810C08002070B50446BE
:10350C00C1680369994233DA8DB2C8B2FEF728FC60
:10351C00024629463748FEF773FCE168637D994201
:10352C001FDC23699DB2237D2269D0B21844C0B23E
:10353C00FEF716FC2F4E024629463046FEF760FC7D
:10354C002569637D1D443046FEF7F7FC85423FDD5F
:10355C002369617D1944002289B23046FEF750FC84
:10356C0036E0C91A002289B22248FEF749FCD8E796
:10357C00204D89B22846FEF796FC0646207BFEF7C6
:10358C00EFFB40EA0602A1892846FEF739FC218AA6
:10359C002846FEF788FC0646207D237C1844C0B2E2
:1035AC00FEF7DEFB40EA0602218A2846FEF728FCDD
:1035BC00E168637DC91A002289B22846FEF720FC17
:1035CC002369617D1944002289B22846FEF718FC54
:1035DC002369013B2361E2680132E260227D0432FF
:1035EC002275002B02DB0023237270BD0123E371D3
:1035FC00F9E700BF0C0800202DE9F84381462D485F
:10360C00FEF79BFC80460746841E012C0DDDA6B2FE
:10361C00B11E284D89B22846FEF745FC02463146BC
:10362C002846FEF7EDFB023CEFE701247B1EA3428C
:10363C000DDDA6B2B11C1F4D89B22846FEF733FC36
:10364C00024631462846FEF7DBFB0234EEE710203B
:10365C0003F0C9FED0B199F8090080F08000FEF7A4
:10366C007FFB144C024600212046FEF7C9FB08F1F3
:10367C00FF381FFA88F899F80900FEF771FB02462B
:10368C0041462046FEF7BCFBBDE8F883094C0022FE
:10369C0011462046FEF7B4FB08F1FF31002289B237
:1036AC002046FEF7ADFB99F80930043389F8093050
:1036BC00EAE700BF0C0800202DE9F84381462E48AC
:1036CC00FEF73BFC80460746841E012C0DDDA6B29E
:1036DC00B11E294D89B22846FEF7E5FB024631465C
:1036EC002846FEF78DFB023CEFE701247B1EA3422C
:1036FC000DDDA6B2B11C204D89B22846FEF7D3FBD6
:10370C00024631462846FEF77BFB0234EEE71120D9
:10371C0003F069FE08B399F80900FEF721FB164C7B
:10372C00024600212046FEF76BFB99F80900093090
:10373C00C0B289F8090008F1FF381FFA88F8FEF7C3
:10374C000FFB024641462046FEF75AFB99F809301A
:10375C00033389F80930BDE8F883074C0022114681
:10376C002046FEF74DFB08F1FF31002289B22046BE
:10377C00FEF746FBEFE700BF0C08002038B5044607
:10378C00B0F91410B0F9163099421ADA214DC2680A
:10379C0089B22846FEF734FBB4F91610226989B2B7
:1037AC002846FEF72DFBB4F91630013B1BB2E38221
:1037BC00B4F914200132A282002B26DB00232372E1
:1037CC0038BD144D89B22846FEF76DFBE268014600
:1037DC00204602F091FAB4F91410024689B2284638
:1037EC00FEF70EFBB4F9161089B22846FEF75BFB08
:1037FC0022690146204602F07FFAB4F916100246FF
:10380C0089B22846FEF7FCFACDE70123E371237257
:10381C00D6E700BF0C0800202DE9F84304466FF0F2
:10382C003F01093002F0B0F92348FEF786FB8046D1
:10383C00607BFEF795FA8146637B4733637394F99B
:10384C000C50454512DAAFB21B4E39463046FEF7E6
:10385C002AFB02464946204602F04EFA02463946F9
:10386C003046FEF7CDFA237D1D44EAE7A37B93B1E6
:10387C0094F90C3001332373227D94F90C1091FBD5
:10388C00F2F302FB131323732369013B2361002B17
:10389C0006DBBDE8F88394F90C30013B2373EBE7AE
:1038AC004FF49671462003F0A7FD2061A37B83F0B3
:1038BC000103A373EDE700BF0C08002070B50446AC
:1038CC00002383820D4E3046FEF737FBE0824FF427
:1038DC00807003F088FDC5B22846FEF741FAE0601F
:1038EC001021042003F088FD2844C0B2FEF738FAFA
:1038FC0020613046FEF729FB70BD00BF0C0800208C
:10390C0038B504460023C360094D2846FEF715FB65
:10391C00013820614FF4807003F065FD2075112192
:10392C00082003F069FD60752846FEF70EFB38BDD4
:10393C000C080020F8B50446002686820E4F384647
:10394C00FEF7FBFA0138E0824FF4807003F04BFD78
:10395C00C5B22846FEF704FAE0601021082003F0F7
:10396C004BFD2844C0B2FEF7FBF920613846FEF748
:10397C00ECFA2676F8BD00BF0C08002070B50546A1
:10398C00037A43B1142003F02EFD78BB2B689B689F
:10399C00284698472AE01948FEF7CFFA6A7A95F834
:1039AC002C10531801330646834201DB002407E038
:1039BC00002219461148FEF723FAF7E70134A4B2A6
:1039CC0095F82C30A3420DD9697A0B199E42F5DD7E
:1039DC001946A31C05EB83035A6889B20748FEF706
:1039EC000FFAEBE76B7A13B1013B6B7270BD0348B6
:1039FC00FEF7ABFA01232B72F8E700BF0C0800208E
:103A0C00F8B590F91030002B02DD013B0374F8BDC2
:103A1C000546082003F0E7FC287400241248FEF742
:103A2C008CFA8442F3D2104E21463046FEF73BFA14
:103A3C00EA680146284602F0CFF80746502003F00A
:103A4C00D2FCC1B24A0813460020FEF782F90246A6
:103A5C003946284602F0E8F8024621463046FEF781
:103A6C00CFF90134A4B2D9E70C080020F8B505460B
:103A7C00B0F90A401448FEF760FA84420DDB0024CA
:103A8C001148FEF75AFA84421DD2142221462846C8
:103A9C0002F0EAF80134A4B2F2E7B5F90A309FB2A9
:103AAC001C02094E3046FEF748FA94FBF0F0C0B207
:103ABC00FEF756F9024639463046FEF7A1F9B5F93C
:103ACC000A3001336B81F8BD0C080020F0B583B0CF
:103ADC000646C78939463148FEF7E5F90190337B34
:103AEC00CBB108B1F38923B90137BFB2B6F9104095
:103AFC0020E0102201A906F1090001F0DDFF80F0A1
:103B0C0001003073F189013989B2F181019A23489E
:103B1C00FEF776F9E8E70028E8D0F389002BE5D02A
:103B2C00013B99B2F18102461C48FEF769F9DDE7C9
:103B3C00013C24B2BC4218DBA4B2184D21462846E5
:103B4C00FEF7B1F902A941F8040D6FF04F0206F12E
:103B5C00090001F0B1FF019A21462846FEF750F901
:103B6C00019B002BE4D13482E2E7019B2BB9F28953
:103B7C00338A9A4206D0002300E0002333721BB92B
:103B8C0003B0F0BD0123F9E7142003F02CFC00284E
:103B9C00F6D133689B6830469847F1E70C08002053
:103BAC0070B582B004461B48FEF7C7F90146A0EB7E
:103BBC00A00003F021FC80B2E0812082012323735A
:103BCC00002323726FF07F430193022003F00BFC60
:103BDC00B0B904F1090602AD55F8041D304601F0E8
:103BEC0065FF6FF01F022946304601F065FF019A10
:103BFC00E1890848FEF704F90023E37102B070BDB7
:103C0C004FF4807003F0EFFBC0B2FEF7D5F80190D3
:103C1C00DFE700BF0C08002070B504464FF480703D
:103C2C0003F0E1FBC0B22074FEF7C6F8064600258F
:103C3C00A5810748FEF781F90138E081257265748A
:103C4C00314604F1090001F031FFE57170BD00BF90
:103C5C000C080020F8B504466148FEF76EF9637C49
:103C6C00032B00F2B380DFE803F00236798BA189D5
:103C7C00E38999421BD30121A289E3899A4203D299
:103C8C000132A281013BE381002900F08A80A289E4
:103C9C00E3899A4240F28580012363740025A58153
:103CAC004F48FEF74AF90138E081A57479E004F138
:103CBC0009054622284601F04BFF06464622E189BB
:103CCC00284601F045FF01460028DDD00EB13146F3
:103CDC00D2E73146D8E706460025012701E0013539
:103CEC00ADB2A389AB420AD96FF00102294604F1A7
:103CFC00090001F02DFF0028F1D10746EFE7E58917
:103D0C000135ADB201E00135ADB2B5420AD26FF06A
:103D1C000102294604F1090001F01AFF0028F2D132
:103D2C000746F0E7A37C0133DBB2A374092B38D927
:103D3C000023A374A289911CE389994209DB87B300
:103D4C00022363746FF07F4104F1090001F0AEFEB1
:103D5C0027E00132A281013BE38122E004F1090555
:103D6C000122A189284601F0F3FE06460122E189D1
:103D7C00284601F0EDFEA0B19EB10323637410E060
:103D8C00174D0022A1892846FEF73AF80022E18956
:103D9C002846FEF735F8A38923B90423637401235D
:103DAC002372F8BD013BA381E3890133E381207CBD
:103DBC00FEF702F806460246A1892846FEF720F8CF
:103DCC003246E1892846FEF71BF8EAE70A2003F0A1
:103DDC000AFB0028E5D123689B6820469847E0E75A
:103DEC000C08002070B50546807EFDF7B9FF06462D
:103DFC0000241848FEF7A1F884420FD2EA7E224430
:103E0C00D2B2314605F1090001F0A6FF0246214667
:103E1C001048FDF7F5FF0134A4B2EAE72B7F3BB164
:103E2C00EB7E013BEB760A2003F0DDFA20B170BD8E
:103E3C00EB7E0133EB76F6E7AB7E0133AB761E20DF
:103E4C0003F0D1FA0028F2D12B7F83F001032B77FA
:103E5C00EDE700BF0C08002038B504461C3001F01B
:103E6C00E3FD1448FEF769F8013885B2237F03B1EE
:103E7C00002594F824000130C0B284F82400FDF72A
:103E8C006FFF94F82520014604F1090001F064FF4E
:103E9C00024694F825300133DBB284F825303F2BF1
:103EAC0002D9002384F8253029460248FDF7A8FFE3
:103EBC0038BD00BF0C08002010B504464C2103F09F
:103ECC00E9FA204610BD10B50446282103F0E2FAA9
:103EDC00204610BD10B50446202103F0DBFA204625
:103EEC0010BD10B50446882103F0D4FA204610BD4D
:103EFC0010B50446882103F0CDFA204610BD10B54C
:103F0C000446142103F0C6FA204610BD10B5044631
:103F1C00182103F0BFFA204610BD10B50446282125
:103F2C0003F0B8FA204610BD10B50446302103F05A
:103F3C00B1FA204610BD10B50446142103F0AAFABC
:103F4C00204610BD10B50446142103F0A3FA2046F8
:103F5C0010BD10B50446102103F09CFA204610BD8C
:103F6C0010B50446302103F095FA204610BD10B56B
:103F7C000446502103F08EFA204610BD10B50446BD
:103F8C00282103F087FA204610BD10B504460C21F9
:103F9C0003F080FA204610BD10B504460C2103F046
:103FAC0079FA204610BD10B504461C2103F072FAB4
:103FBC00204610BD10B50446382103F06BFA20469C
:103FCC0010BD10B50446282103F064FA204610BD3C
:103FDC0010B50446182103F05DFA204610BD10B54B
:103FEC000446142103F056FA204610BD10B50446C1
:103FFC00182103F04FFA204610BD10B504461C21C1
:10400C0003F048FA204610BD10B504460C2103F00D
:10401C0041FA204610BD10B504461C2103F03AFAB3
:10402C00204610BD10B50446202103F033FA20467B
:10403C0010BD10B50446182103F02CFA204610BD13
:10404C0010B504461C2103F025FA204610BD10B50E
:10405C0004461C2103F01EFA204610BD10B5044680
:10406C00182103F017FA204610BD10B5044618218C
:10407C0003F010FA204610BD10B50446182103F0C9
:10408C0009FA204610BD10B50446182103F002FAB7
:10409C00204610BD10B50446102103F0FBF9204654
:1040AC0010BD10B50446182103F0F4F9204610BDDC
:1040BC0010B504460C2103F0EDF9204610BD10B5E7
:1040CC0004461C2103F0E6F9204610BD10B5044649
:1040DC00102103F0DFF9204610BD10B50446102165
:1040EC0003F0D8F9204610BD10B50446102103F09A
:1040FC00D1F9204610BD10B50446102103F0CAF9C1
:10410C00204610BD10B504461C2103F0C3F920460F
:10411C0010BD10B50446202103F0BCF9204610BD9B
:10412C0010B50446142103F0B5F9204610BD10B5A6
:10413C000446142103F0AEF9204610BD064A026075
:10414C000222027108224271032282710022C27182
:10415C0001220272704700BF9C7D000870B50646B4
:10416C0000242146022C0AD80D02102003F03BF942
:10417C00C1B20901C9B229430134E4B2F2E706F134
:10418C00090001F093FC70BD10B5044690F90D10B8
:10419C00093001F0F9FC28B194F90D30002B02DD47
:1041AC00F823637310BD237B0133DBB2237363737A
:1041BC00082BF7D9012323732046FFF7CFFFF1E734
:1041CC0008B5012202734273FFF7C8FF08BD000057
:1041DC0070B50546407BFDF7C3FD06466B7B61332E
:1041EC006B73014605F1090001F060FC06F0013625
:1041FC0026F080762C7B0748FDF79FFE844208D280
:10420C00324621460348FDF7FBFDAB7B1C44A4B2B0
:10421C00F1E770BD0C08002010B5044600230373B1
:10422C004FF4807003F0DFF860730821042003F072
:10423C00E3F8A0732046FFF7CBFF10BDF8B5054699
:10424C001C48FDF77AFE06B22C7B013C012702E0EC
:10425C00AB7B1C4424B2B4420CDA002CF8DB6FF0BC
:10426C000702A1B205F1090001F072FC0028EFD1A0
:10427C000746EDE7297B02E0A97B214409B2B14254
:10428C000ADA8CB20822214605F1090001F060FC23
:10429C000028F1D10746EFE75FB12B7B0133DBB28E
:1042AC002B73AA7B934201D300232B732846FFF771
:1042BC008FFFF8BD0C08002010B504464FF4807039
:1042CC0003F091F8C0B2FDF74BFDE0604FF4807045
:1042DC0003F089F8C0B2FDF743FD20610023A382EF
:1042EC000248FDF72AFE0138E08210BD0C080020C0
:1042FC0010B504460848FDF720FE013800EBD070DD
:10430C0040F34F00208380B2013060832046FFF7DA
:10431C00D3FF0023237710BD0C08002038B5037F92
:10432C00012B24D00446022B2AD1B0F91410524D83
:10433C00002289B22846FDF763FDB4F9161000225D
:10434C0089B22846FDF75CFDB4F91430013B1BB271
:10435C00A382B4F916200132E282002B80F28A800B
:10436C0023689B68204698470123237282E0437F91
:10437C00013BDBB24377002B7CD10223037779E03E
:10438C00B0F91A30B0F918105B1A012B0CDDB4F926
:10439C001A308B4208DD8DB214222946204601F0DA
:1043AC0063FC691C09B2F2E7B4F91430B4F91820B3
:1043BC00934208DC012B23DCB4F91410E26889B2B7
:1043CC002D48FDF71DFDB4F91650B4F91A309D4275
:1043DC001EDAB4F91430B4F91820934242DBB4F964
:1043EC001600B4F91A1088423CDC013A12B222834E
:1043FC0001316183002A21DB2046FFF75DFF39E0A4
:10440C009BB2991E002289B21B48FDF7F9FCD3E739
:10441C001948FDF792FD0238854207DBB4F91610F6
:10442C00226989B21448FDF7EBFCD2E7E18A02312C
:10443C00002289B21048FDF7E3FCEFE70123237754
:10444C001E210A2002F0D8FF60770B48FDF775FD9E
:10445C00013800EBD07040F34F03A3829BB20133C1
:10446C00E38207E00133A382B4F91630013BE38207
:10447C000023237238BD00BF0C08002010B5044681
:10448C004FF4807002F0AFFFC0B2FDF769FCE06042
:10449C004FF4807002F0A7FFC0B2FDF761FC206101
:1044AC00B4F91A30A382B4F91830E38210BD0000BD
:1044BC0010B504460548FDF740FD01382083002364
:1044CC0063832046FFF7DAFF10BD00BF0C08002005
:1044DC0038B50446B0F91A30012B1BDD0025B4F9B0
:1044EC001A30AB4206DD1422A9B2204601F0BCFB07
:1044FC000135F4E7B4F91850ADB23248FDF71DFDA3
:10450C00854207D214222946204601F0ADFB013525
:10451C00ADB2F2E7B4F91430B4F9182093420BDCC5
:10452C00B4F91A20013293422FDCB4F91410E2686A
:10453C0089B22448FDF764FCB4F91630B4F91A209A
:10454C0093420BDBB4F91820013A934225DBB4F902
:10455C001610226989B21B48FDF752FCB4F91430CD
:10456C00B4F91820934224DBB4F91600B4F91A10EC
:10457C0088421EDC013A12B2228301316183002A87
:10458C0013DA0123E37123721BE09BB2991E002204
:10459C0089B20C48FDF734FCC7E79BB2991C00228A
:1045AC0089B20848FDF72CFCD1E72046FFF766FFDF
:1045BC0007E00133A382B4F91630013BE3820023F8
:1045CC00237238BD0C0800202DE9F041044641B19E
:1045DC000026B4F90E0002F006FFC7B200252582B2
:1045EC001EE0007BFDF7BCFB0646F2E7002E2ED04A
:1045FC00218A2C48FDF757FC002831D0238A01333F
:10460C002382F5E7218A2748FDF74DFC18B9238A48
:10461C0001332382F6E70135EDB2238A013323827D
:10462C00B4F810801F48FDF788FC8045DED2BD42EF
:10463C00DCD2002EE6D0218A1A48FDF734FC18B1E2
:10464C00238A01332382F6E70135EDB2E5E7218AAF
:10465C001448FDF728FC18B9238A01332382F6E7A6
:10466C00258A1048FDF769FC85420FD300250D48BB
:10467C00FDF763FC854207D2324629460948FDF70F
:10468C00BFFB0135ADB2F2E70023E381314604F103
:10469C00090001F00BFAB4F90E30013BE381BDE8DF
:1046AC00F08100BF0C08002010B504464FF4807058
:1046BC0002F099FE20730548FDF73FFCE0810021D4
:1046CC00A1742046FFF780FF10BD00BF0C0800202E
:1046DC0070B50546837CBBB90C22298A05F109000B
:1046EC0001F036FA20B3B5F90E30002B1CDCAB7C94
:1046FC006BB90123AB742048FDF71FFCE881A97C42
:10470C002846FFF761FF13E06FF00B02E5E71A484C
:10471C00FDF71BFC2B7B47332B732B689B682846C0
:10472C00984701232B7226E0A97C2846FFF74CFF03
:10473C00287BFDF715FB0646002401E00134A4B2EA
:10474C000D48FDF7FAFB844213D22B8AA342F5D015
:10475C0021460948FDF7A7FB0028EFD03246214639
:10476C000548FDF74DFB0A222146284601F07CFA4C
:10477C00E4E700232B7270BD0C08002070B50446D2
:10478C00007BFDF7EDFA0546237B1133237300F014
:10479C007F3121F0FE4104F1090001F087F905F0A9
:1047AC00013525F080750848FDF7C7FB064600214A
:1047BC00B14208DA8CB22A4621460348FDF720FBA9
:1047CC00611C09B2F4E770BD0C08002010B504465A
:1047DC004FF4807002F007FE207300236373A37301
:1047EC002046FFF7CBFF10BD38B504463B48FDF71C
:1047FC00A4FB637B9BB10546012B22D06FF0030118
:10480C0004F1090001F0C0F905462DB1637B0133B9
:10481C00DBB26373022B59D80023237238BD0421F9
:10482C0004F1090001F0B0F905460028EDD0012390
:10483C00A3731E21112002F0DFFD208200232375BB
:10484C00E3E7A37B73B394F91430013B5BB223759C
:10485C00002BE3DC0721022002F0CEFD2075284658
:10486C0002F0C1FD00B26082B4F91030002B03DC01
:10487C00637B01336373CFE7184D81B22846FDF794
:10488C0012FBB4F9121040F0801242F4004289B2CB
:10489C002846FDF7B5FA0023A373B4F91030013B99
:1048AC002382B9E7B4F912100C4D89B22846FDF7F2
:1048BC00FAFAB4F9121000F07F3222F0FE4289B2FB
:1048CC002846FDF79DFA0123A373A5E72046FFF7C1
:1048DC0055FF00236373012323729FE70C0800200C
:1048EC0090F83430042B00D9704770B5044603207F
:1048FC0002F079FD05463448FDF71FFB064615F01E
:10490C00FF050AD0012D41D002F06DFD94F8343032
:10491C00013304EBC303188106E094F834300133FF
:10492C0004EBC30300221A814FF4807002F05BFD8C
:10493C0094F83450C0B2FDF713FA013504EBC505F9
:10494C00686094F83430013304EBC303B3F90810F6
:10495C0089B21D48FDF7A7FAB8B994F83420531C56
:10496C0004EBC303B3F90810184B83FB0603A3EB4A
:10497C00E673994212DA013204EBC20201239372FC
:10498C0094F83430013384F8343070BD94F83430FA
:10499C00421E013304EBC3031A81C5E7761AB342F6
:1049AC0005DD013204EBC20200239372E8E702201A
:1049BC0002F019FD94F83430003018BF0120013397
:1049CC0004EBC3039872DBE70C08002056555555D1
:1049DC0008B5002280F83420FFF782FF08BD90F85C
:1049EC003430013BDBB280F83430013300EBC303CD
:1049FC005A68013100EBC1004260B3F90820028112
:104A0C009B7A8372704700002DE9F04706462948CF
:104A1C00FDF793FA0FFA80F86FF01F0106F1090009
:104A2C0001F0B2F8002407E021463046FFF7D7FF2B
:104A3C00013CE4B20134E4B296F83430A3422FD9ED
:104A4C002746631C06EBC303B3F90820551E9B7A5B
:104A5C0003B1551C002DE7DBA845E5DD1FFA85F9F0
:104A6C0049461448FDF71FFA824618B10A2002F095
:104A7C00BAFC70B1013706EBC7077A68514630466D
:104A8C0001F03AF93D81024649460A48FDF7B8F96A
:104A9C00D0E721463046FFF7A2FF013CE4B2C9E75C
:104AAC000C2002F0A0FC08B1BDE8F0873046FFF7FF
:104ABC0017FFF9E70C080020C37E022B00D97047C2
:104ACC0010B504460D48FDF738FA02F08CFCE37E75
:104ADC00043304EB430398804FF4807002F083FCA2
:104AEC00E37EE2181076B4F90A1003F1080204EB25
:104AFC00420251800133E37610BD00BF0C08002048
:104B0C0008B50022C2764281FFF7D6FF08BD38B542
:104B1C00131D00EB4303B3F90440B0F90A3002F162
:104B2C00080500EB4505B5F902505B1B091B002974
:104B3C00B8BF49425B1A29D4594203F03F0301F034
:104B4C003F0158BF4B421F2B0CDCC3F11F04E4B2D6
:104B5C00E400E4B21044007EFDF702F905460022A1
:104B6C00104609E0A3F14004E4B2E400E4B2F1E73A
:104B7C008B4018430132D2B2022A08D8D10025FA50
:104B8C0001F3DBB21B1BF3D50023F1E7002038BD8A
:104B9C002DE9F04105461F48FDF7CFF98046002767
:104BAC0005E03246B9B21B48FDF72AF901374745F3
:104BBC0012DA00242646EB7EA342F2D9224639466D
:104BCC002846FFF7A4FF02463146284601F094F828
:104BDC0006460134E4B2EEE7B5F90A3001339BB274
:104BEC006B8113F03F0F0AD10023EA7E9A4206D95B
:104BFC00E9180A7E04320A760133DBB2F5E7142099
:104C0C0002F0F1FB08B1BDE8F0812846FFF754FF34
:104C1C00F9E700BF0C080020F8B590F94C300F2BC9
:104C2C0000DDF8BD0446134D2846FDF786F902F069
:104C3C00DAFB064687B239462846FDF734F90028D8
:104C4C00EFD14FF4807002F0CEFBC0B2FDF788F8C4
:104C5C00024639462846FDF7D3F894F94C30DBB2BE
:104C6C009A1C04EB8202968000219171013384F826
:104C7C004C30D6E70C0800202DE9F04F83B00646E7
:104C8C005048FDF75AF98346002443E0C9B2013974
:104C9C00C9B28B1C06EB8303B3F90420023506EB77
:104CAC008505AA8093F90630AB7186F84C10013C4F
:104CBC00E4B22DE05F4443E0BFB207F1FF381FFAC6
:104CCC0088F841463F48FDF7EEF88146AB1C06EBF1
:104CDC00830393F90630012B61DCDFF8E880394659
:104CEC004046FDF7E0F802464946304601F004F82C
:104CFC00024639464046FDF783F8023506EB85053A
:104D0C00B5F904106FF03F0289B2504600F020FF55
:104D1C000134E4B2254696F94C108C4246DAA21CBA
:104D2C0006EB820292F9063001335BB29371072BCA
:104D3C00ACDCA21C06EB8202B2F90470FF1AB9D4E7
:104D4C00BFB207F101081FFA88F8DFF878904146E6
:104D5C004846FDF7A8F8019006F1090A6FF03F02EA
:104D6C004146504600F0F4FE39464846FDF79BF8A4
:104D7C0002460199304600F0BFFF024639464846CC
:104D8C00FDF73EF8AB1C06EB8303B3F9047093F903
:104D9C0006301F44BB458FDCA7EB0B078CE76FF08D
:104DAC001F024146504600F0D3FE96E76FF01F01FC
:104DBC0006F1090000F0E8FE3046FFF72DFF03B0C6
:104DCC00BDE8F08F0C08002008B5002280F84C20BC
:104DDC00FFF722FF08BD000070B504464FF6FD73C7
:104DEC00838590F82E00FCF7BBFFA06194F82E3061
:104DFC00473384F82E30C6B2C0F30725C0F3074002
:104E0C000123042B0FD876086D084008010289B2E3
:104E1C00EAB21143F2B242EA0122991D44F8212070
:104E2C000133DBB2EDE70A21032002F0E5FAA082A0
:104E3C000648FDF782F8411E09B2237B03B100211D
:104E4C00A26A89B20148FCF7DBFF70BD0C08002098
:104E5C0010B504464FF4807002F0C5FA84F82E00A9
:104E6C00022002F0C0FA003018BF012020734FF46A
:104E7C00FA71C82002F0C0FAE0822046FFF7ACFFBE
:104E8C0010BD000010B504460C3000F0CDFDB4F997
:104E9C001630013B1BB2E382002B17DD1A48FDF7DD
:104EAC004CF80138237B03B10020B4F92C30042BCF
:104EBC0017DDB4F91430013B1BB2A382002B1FDBAE
:104ECC00002281B21048FCF79BFF10BD237B83F0BE
:104EDC00010323734FF4FA71C82002F08DFAE082BB
:104EEC00DCE7002BB8BF5B42063354F8232081B2B9
:104EFC000548FCF785FFB4F92C300133A385E4E7B2
:104F0C002046FFF769FFE0E70C08002038B504469F
:104F1C000D464FF4807002F066FA2073681C02F0A4
:104F2C0062FA80B2208200B2B4F90E30C01A00EBE3
:104F3C008000410091FBF5F040B260730322012127
:104F4C0002F020FA607338BD38B504460748FCF708
:104F5C00F4FF0546013002F046FAE081294620466E
:104F6C00FFF7D4FF01232372E37138BD0C08002036
:104F7C00F8B504466FF00B01093000F005FE207BFC
:104F8C00FCF7EEFE06462448FCF7D7FF074694F9DB
:104F9C000D30002B1EDD002509E039462046FFF7B9
:104FAC00B5FFF8BD637B5B4263730135EDB294F9D9
:104FBC000D309D42F5DC3246E1891748FCF720FFA5
:104FCC00E389228A9342E8D07A1C9342EADA0133CD
:104FDC00E381EAE7002509E039462046FFF796FF12
:104FEC00DFE7637B5B4263730135EDB294F90D30FF
:104FFC00002BB8BF5B429D42D3DC3246E1890648A8
:10500C00FCF7FEFEE389228A9342E5D0002BE8D020
:10501C00013BE381E8E700BF0C08002038B590F8AD
:10502C00852090F884309A4200D338BD0446154848
:10503C00FCF783FF411C401002F0DEF994F8853038
:10504C0003EB43039A00224490814FF4807002F0EA
:10505C00CAF994F88550C0B2FCF782FE05EB450501
:10506C00AB00234418610421012002F0C5F994F827
:10507C00853003EB43018A0022441075013384F818
:10508C008530D2E70C08002008B5002280F8852076
:10509C0001220272C271FFF7C1FF08BDF8B50646C6
:1050AC0000F109076FF01701384600F06DFD002480
:1050BC0020E004EB44018A003244002111615900C4
:1050CC0019448A0032449189107D814205D303EB47
:1050DC004305AA003244091A918103EB430399005A
:1050EC00083131446FF00F020831384600F0E4FC0F
:1050FC000134E4B296F88530A3421DD9002523462D
:10510C0004EB44018A003244127DAA42D7D304EB4B
:10511C0044018A0032449189AAB29142C9D3891AB6
:10512C0004EB44039A003244126989B21F48FCF71D
:10513C0067FE0135EDB2E2E7013B5BB201E0013BFA
:10514C005BB2002B21DB03EB43018A003244126972
:10515C00002AF4D196F88520013A500081188F006E
:10516C0037443D69590001EB030C4FEA8C04A4460B
:10517C00344425613D7D2575BC896046304484816D
:10518C00D2B286F88520002AD9D196F8852096F8D7
:10519C0084309A4200D3F8BD0A2002F024F900288A
:1051AC00F9D13046FFF73AFFF5E700BF0C080020B5
:1051BC0090F8852090F884309A4200D3704770B5EF
:1051CC0004461648FCF7B9FE0546411F042002F0C0
:1051DC0013F994F885104B005E18B2001646224461
:1051EC00908132462244D5814FF4807002F0FBF856
:1051FC0094F88550C0B2FCF7B3FD05EB4505AB0048
:10520C002344186194F8853003EB43018A0022444F
:10521C0000211175013384F8853070BD0C08002015
:10522C0008B5002280F8852001220272C271FFF7B6
:10523C00BFFF08BD2DE9F84304468448FCF77DFE0A
:10524C000646002519E00133DBB294F885209A421A
:10525C000FD903EB43018A002244127D002AF2D1BC
:10526C0003EB43018A0022449289AA42EBD1012329
:10527C0000E000232BB10135ADB2B54209D20023B9
:10528C00E3E76FF00F02294604F1090000F060FC1F
:10529C00F1E74FF000081DE004F109091746274417
:1052AC003969484600F002FC0222B989484600F0F0
:1052BC004FFCF0B905EB4505A900083121446FF00E
:1052CC000F02083104F1090000F0F6FB08F10108A7
:1052DC005FFA88F894F88530434578D9454608EB51
:1052EC00480293001A4623441B7D002BD4D0002780
:1052FC002AE06B0043449F0027446FF07F42B9893A
:10530C005248FCF77DFDBB890133FB810321012051
:10531C0002F072F83875CDE7A1EB090105EB4502F7
:10532C00930023441A6989B24848FCF769FD1BE0D5
:10533C00494405EB4502930023441A6989B243485A
:10534C00FCF75EFD0137FFB205EB450293002344E9
:10535C001B7DBB4211D305EB450293002344998975
:10536C001FFA87F94945D7D205EB45029300234430
:10537C00D9897B18B342E5DADAE705EB45018A00F7
:10538C001146224492899BB29A4212D32144D31AD9
:10539C008B816A002A4493002344DA89197D5318BF
:1053AC00B3420DDA05EB4500830023440A44DA814D
:1053BC0080E705EB45029300234400221A61E8E7DD
:1053CC0005EB45029300234400221A6172E7013B6E
:1053DC005BB201E0013B5BB2002B26DB03EB43012C
:1053EC008A0022441269002AF4D194F88520013AEB
:1053FC005700B9188800204406695D0005EB030CC2
:10540C004FEA8C018C4621440E61067D0E75808915
:10541C008881B91888002044C68960462044C6811A
:10542C00D2B284F88520002AD4D194F8852094F83F
:10543C0084309A4201D3BDE8F883052001F0D3FFF4
:10544C000028F8D12046FFF7B3FEF4E70C08002043
:10545C00002390F848209A4208D99A1C00EB82024B
:10546C0092888A4204D00133DBB2F2E70020704705
:10547C000120704738B590F8482090F849309A428E
:10548C0000D338BD04461148FCF757FD013001F03C
:10549C00AAFF85B229462046FFF7DAFF0028F0D193
:1054AC0094F84830023304EB83039D804FF48070F2
:1054BC0001F099FF94F848309A1C04EB8202907129
:1054CC000021D171013384F84830DAE70C08002050
:1054DC0008B5002280F8482001220272C271FFF741
:1054EC00C9FF08BD2DE9F04F83B00446002701E049
:1054FC000137FFB294F84830BB4215D9BE1C04EBFF
:10550C008606B079FCF72CFC04F109050146284607
:10551C0000F0CCFA0422B188284600F019FB0028D0
:10552C00E6D00122F271E3E7013B5BB201E0013B03
:10553C005BB2002B19DB9A1C04EB8202D279002A95
:10554C00F5D094F84820501E013204EB8202957974
:10555C00991C04EB81018D7195888D80D279CA716B
:10556C00C0B284F848000028E1D1324D0021284611
:10557C00FCF799FC01902846FCF7DFFC0746002558
:10558C00A9461DE0691C89B22A48FCF78CFC06462A
:10559C001EE0691E019A89B22648FCF731FC2CE00A
:1055AC006FF0070201A9584600F086FA019A2946C5
:1055BC002048FCF725FCDDF8049001960135ADB2CE
:1055CC00BD4225D2AA4607F1FF384545DADB002655
:1055DC0029462046FFF73CFF0028ECD1019B002B0D
:1055EC00E9D004F1090B6FF0070201A9584600F04D
:1055FC0063FA15B1B9F1000FCBD0C245D0DA002E49
:10560C00CED1691C019A89B20A48FCF7F9FBC7E7AD
:10561C0094F8482094F849309A4202D303B0BDE87C
:10562C00F08F0A2001F0DFFE0028F7D12046FFF7AB
:10563C0021FFF3E70C08002030B4C82585824FF415
:10564C006175C58232250576016002814381002394
:10565C004360036130BC704710B5044603691BB945
:10566C00207B0023237310BDFAF7ACFD2369C01A0D
:10567C00E38A9842F4D90223237300232361EFE7D2
:10568C0038B50446FAF79EFD054621892068FBF7DC
:10569C00D3F9012808D0236923B12369EB1A628955
:1056AC00934200D9256138BD2369002BFBD02369B7
:1056BC00EB1AE28A934204D2012323730023236161
:1056CC00F1E72369ED1A63899D4202D20223237309
:1056DC00F4E700232373F1E7704770477047704776
:1056EC0010B50446002303710348FCF726FCC0F3F5
:1056FC004F00A06010BD00BF0C08002010B5044680
:10570C00002303710348FCF718FCC0F34F00013071
:10571C00A06010BD0C08002070B50446037C43B992
:10572C00C168002926DAE368013BE360DB0F2371D3
:10573C0070BDC5681A48FCF700FC85420BDBE568B8
:10574C000135E5601648FCF7F8FB8542B4BF002034
:10575C0001202071ECE7A268A1891148FCF750FBED
:10576C00E1680029EBDD0139002289B20C48FCF715
:10577C0047FBE4E70A4D826889B22846FCF740FBF8
:10578C00E6682846FCF7D9FB01388642CBDAE1689B
:10579C000131002289B22846FCF732FBC3E700BF77
:1057AC000C08002070B5044605691A48FCF7C5FBC7
:1057BC00854218DB236901332361E16800290CDB86
:1057CC00144DA26889B22846FCF71AFBE6682846F5
:1057DC00FCF7B3FB0138864214DBE368013BE36062
:1057EC00DB0F237170BDA268218A0A48FCF708FB05
:1057FC0021690029DEDD0139002289B20548FCF758
:10580C00FFFAD7E7E1680131002289B22846FCF79C
:10581C00F7FAE2E70C0800202DE9F047814623480F
:10582C00FCF78BFB8046074600EBD07464102546D2
:10583C00002D0FDD1FFA85FA0AF1FF311B4E89B2DC
:10584C003046FCF730FB024651463046FCF7D8FA9E
:10585C00013DEDE77B1EA3420DDDA6B2711C134D7D
:10586C0089B22846FCF71FFB024631462846FCF756
:10587C00C7FA0134EEE70D4C002211462046FCF726
:10588C00BFFA08F1FF31002289B22046FCF7B8FAC2
:10589C00D9F80830013BC9F80830002BCCBF0023E5
:1058AC00012389F80430BDE8F08700BF0C08002004
:1058BC0038B50546002407E0002221460C48FCF7C9
:1058CC009FFAAB681C44A4B20948FCF736FB84422F
:1058DC0005D2002CF0D1AB68012BF2D1ECE7AB6810
:1058EC005B10AB60B3FA83F35B092B7138BD00BF5F
:1058FC000C08002010B50446002303714FF480708F
:10590C0001F071FDC0B2FCF72BFAA060022001F08F
:10591C006AFD003018BF0120207410B10023E36031
:10592C0010BD0348FCF709FB0138E060F8E700BF45
:10593C000C08002010B50446002303714FF480704E
:10594C0001F051FDC0B2FCF70BFAA0600448FCF763
:10595C00F4FAC0F34F00E0600130206110BD00BFCD
:10596C000C08002010B504460C2101F093FD2046D4
:10597C0010BD10B504460C2101F08CFD204610BD65
:10598C0010B50446182101F085FD204610BD10B558
:10599C000446142101F07EFD204610BDF8B50E46DC
:1059AC0014461248FCF77FFA02461021002507E046
:1059BC00FF20B840BB4022EA00021A43083949B222
:1059CC00002909DB0F4622FA01F3DBB21B1BEFD5D2
:1059DC000135EDB20023EBE731460448FCF710FA31
:1059EC00022D94BF00200120F8BD00BF0C08002040
:1059FC00F8B506460D460024012701E00134A4B297
:105A0C000748FCF79AFA844208D22A4621463046C7
:105A1C00FFF7C4FF0028F1D10746EFE73846F8BD81
:105A2C000C080020007970472DE9F84307460378ED
:105A3C00D3B11D48FCF781FA441E002C0DDDA6B233
:105A4C00711E194D89B22846FCF72DFA02463146D3
:105A5C002846FCF7D5F9013CEFE77A68002112489B
:105A6C00FCF7CEF9BDE8F8830F48FCF766FA8146DF
:105A7C0000F1FF38002444450DDAA6B2711C0A4D22
:105A8C0089B22846FCF70FFA024631462846FCF745
:105A9C00B7F90134EFE709F1FF317A6889B20248AE
:105AAC00FCF7AEF9DEE700BF0C08002001700B0A12
:105ABC004370090C81707047F0B5002A03DB002499
:105ACC002646274625E00B68002B3FD002F5807553
